:020000040000FA
:1000000068020010650100006D0100006F01000032
:1000100000000000000000000000000000000000E0
:10002000000000000000000000000000710100005E
:1000300000000000000000007301000075010000D6
:1000400077010000770100007701000077010000D0
:1000500077010000770100007701000077010000C0
:1000600077010000770100007701000077010000B0
:1000700077010000770100007701000077010000A0
:100080007701000077010000770100007701000090
:100090007701000077010000770100007701000080
:1000A0007701000077010000770100007701000070
:1000B0007701000077010000770100007701000060
:1000C00000F002F800F03EF80CA030C80838241800
:1000D0002D18A246671EAB4654465D46AC4201D180
:1000E00000F030F87E460F3E0FCCB6460126334274
:1000F00000D0FB1AA246AB46334318470417000052
:1001000024170000103A02D378C878C1FAD85207F1
:1001100001D330C830C101D504680C6070470000BD
:100120000023002400250026103A01D378C1FBD813
:10013000520700D330C100D50B6070471FB51FBDFB
:1001400010B510BD01F084FA1146FFF7F7FF00F07B
:10015000B0FA01F09CFA03B4FFF7F2FF03BC01F020
:10016000D1FA00000748804707480047FEE7FEE74E
:10017000FEE7FEE7FEE7FEE704480549034A054BB4
:100180007047000099040000C100000068000010E2
:100190006802001068000010002203098B422CD373
:1001A000030A8B4211D300239C464EE003460B43C7
:1001B0003CD4002243088B4231D303098B421CD329
:1001C000030A8B4201D394463FE0C3098B4201D31B
:1001D000CB01C01A524183098B4201D38B01C01A53
:1001E000524143098B4201D34B01C01A52410309CA
:1001F0008B4201D30B01C01A5241C3088B4201D379
:10020000CB00C01A524183088B4201D38B00C01A25
:10021000524143088B4201D34B00C01A5241411A4C
:1002200000D201465241104670475DE0CA0F00D02F
:100230004942031000D34042534000229C46030928
:100240008B422DD3030A8B4212D3FC22890112BAAE
:10025000030A8B420CD3890192118B4208D3890186
:1002600092118B4204D389013AD0921100E089099E
:10027000C3098B4201D3CB01C01A524183098B427F
:1002800001D38B01C01A524143098B4201D34B0168
:10029000C01A524103098B4201D30B01C01A5241CB
:1002A000C3088B4201D3CB00C01A524183088B4252
:1002B00001D38B00C01A5241D9D243088B4201D3DB
:1002C0004B00C01A5241411A00D2014663465241C6
:1002D0005B10104601D34042002B00D549427047C5
:1002E00063465B1000D3404201B50020C046C046C3
:1002F00002BD70477047704770470000FFFFFFFF67
:1003000010B500248C48406AC005000F030001F0BE
:10031000FFF910090B0D0F11131517191B1D1F21C4
:1003200023252729854C1DE0854C1BE0854C19E0D1
:10033000854C17E0854C15E0854C13E0854C11E0A9
:10034000854C0FE0854C0DE0854C0BE0854C09E0B9
:10035000854C07E0854C05E0854C03E0854C01E0C9
:10036000854C00BF00BF7448406AC006800E811CE7
:100370002046FFF711FF04466F484030006B8007AE
:10038000800F002806D0012808D0022825D0032895
:1003900077D125E079487A49086072E066484030B4
:1003A00000688007800F002806D0012808D00228A6
:1003B0000AD003280FD10AE07048714908600AE0AA
:1003C0006E486F49086006E06D48046003E0002055
:1003D0006B49086000BF00BF53E06948046050E00B
:1003E0005548403000688007800F002806D001285B
:1003F00019D002282CD0032841D13CE04E48806817
:10040000FF2181310840002803D05C485C49086026
:1004100008E049488068C006C00E401C5749484360
:10042000574908602BE044488068FF21813108402B
:10043000002803D051485249086008E03E488068CF
:10044000C006C00E401C4D4948434D49086016E0A7
:1004500039488068FF2181310840002802D048488F
:10046000046007E034488068C006C00E401C60434A
:100470004349086003E000204149086000BF00BF15
:1004800000BF00BF2C484030816B3D480068FFF73B
:1004900083FE3B49086010BD3A49896B2022914395
:1004A000384A91630021244A1162002001E000BF14
:1004B000401CC828FBD301211F4A40321160516003
:1004C000002151600121516000BF1B494031496842
:1004D000C907C90F0029F8D02321174A916029497B
:1004E000896B80229143274A916300BF1249C968F2
:1004F000C907C90F0029F9D003210F4A40321163FF
:1005000001215163002151630121516300BF0A4958
:100510004031496BC907C90F0029F8D00121064AAB
:10052000403291631849044A8032116001215161BF
:100530009161D1617047000000800440801A06007C
:1005400020A1070000350C00E0C81000C05C1500B9
:10055000006A180040771B0080841E00C0912100B3
:10056000009F240040AC2700E032290020402C00EE
:10057000604D2F0000D4300040E13300001BB70075
:1005800000000010008204405F000100564800682F
:1005900056490843544908605548C06B0321084335
:1005A0005349C863704750480068012189020843D5
:1005B0004D4908607D20C0004E4948628861081599
:1005C0004861002088604B484030406B012108435F
:1005D000484940314863474840680121084345493C
:1005E0004860704770B5044621464348FFF7DEFD7A
:1005F000054640484068400840003E49486008467B
:1006000045626810886100208860084640680121C2
:1006100008433849486070BD00BF0146401E0029AC
:10062000FBD17047F8B504460D460022134620461C
:10063000294601F07BF806D20022304B204629469D
:1006400000F0F3FD05E000222C4B2046294600F087
:10065000DFFD064600F00CFEF8BDF0B587B00127BF
:1006600023E000241EE00121B940084600F05FFEAF
:1006700001910090E0002249081805682A46436865
:100680000199009800F056FE059104900599049890
:10069000FFF7C8FF03900398FFF7A4FF1948FFF77F
:1006A000BBFF641C062CDEDD7F1C062FD9DB07B0E8
:1006B000F0BD00BFFFF76AFFFFF775FF1248006843
:1006C000042188431049086000F02EF80F48FFF716
:1006D000A3FF4B20C00100F064FB0DA000F0D3FB92
:1006E00001E0FFF7BAFFFCE7808004404000010012
:1006F0004040044000800140006CDC020000E03F0C
:100700009017000040420F0000800050808D5B0079
:10071000544F4320544F43205155452043554141A8
:100720004141413F0000000010B5F84800684021F9
:100730000843F64908601F2000F0C2FA1E2000F0AE
:10074000BFFA1D2000F0BCFA1C2000F0B9FA10BD61
:1007500010B5002806D0012826D0022846D003284C
:1007600077D165E0EA4B1B6801248C402340002BC5
:1007700009D1012A07D1E64B1B6801248C40234391
:10078000E34C23600FE0E24B1B6801248C402340C4
:10079000002B08D0002A06D1DD4B1B6801248C40B9
:1007A000A343DB4C236067E0DA4B1B6801248C40D9
:1007B0002340002B09D1012A07D1D64B1B68012405
:1007C0008C402343D34C23600FE0D24B1B680124A1
:1007D0008C402340002B08D0002A06D1CD4B1C684A
:1007E00001238B409C43CB4B1C6045E0CA4B1B68EC
:1007F00001248C402340002B09D1012A07D1C64B8C
:100800001B6801248C402343C34C23600FE0C24B80
:100810001B6801248C402340002B08D0002A06D1FD
:10082000BD4B1B6801248C40A343BB4C236023E0D9
:10083000BA4B1B6801248C402340002B0AD1012AAB
:1008400008D1B64B1B6801248C402343B34C236072
:1008500010E010E0B14B1B6801248C402340002BBA
:1008600008D0002A06D1AD4B1B6801248C40A3435D
:10087000AA4C236000E000BF00BF10BD30B5022AC3
:100880002FD2002806D001280ED0022815D0032828
:1008900025D11BE013468B4001248C40A400052584
:1008A0002D07641923601BE013468B4001248C4004
:1008B000A4009B4D6419236012E013468B40012471
:1008C0008C40A400974D6419236009E013468B40C7
:1008D00001248C40A400944D6419236000E000BF03
:1008E00000BF30BD10B502460020002A06D0012A04
:1008F00010D0022A1AD0032A30D123E08B4BDB6BB5
:1009000001248C402340002B01D0012300E0002370
:10091000184624E0864BDB6B01248C402340002BDF
:1009200001D0012300E00023184618E0814BDB6B67
:1009300001248C402340002B01D0012300E0002340
:1009400018460CE07C4BDB6B01248C402340002BD1
:1009500001D0012300E00023184600E000BF00BFE3
:1009600010BD70B5049C002806D0012838D002289C
:100970006AD003287BD19CE0002A18D1644D6D68B1
:1009800001268E40B543624E7560002B07D1354677
:10099000AD6801268E40B5435D4EB5600EE05C4DFE
:1009A000AD6801268E403543594EB56006E0584D7E
:1009B0006D6801268E403543554E7560002C07D179
:1009C000534DED6801268E40B543514EF56006E06B
:1009D0004F4DED6801268E4035434D4EF560B6E033
:1009E000002A18D14B4D6D6801268E40B543494E03
:1009F0007560002B07D13546AD6801268E40B543A2
:100A0000444EB5600EE0434DAD6801268E4035433F
:100A1000404EB56006E03F4D6D6801268E4035437F
:100A20003C4E7560002C07D13A4DED6801268E4092
:100A3000B543384EF56006E0364DED6801268E4030
:100A40003543344EF56082E0002A19D1324D6D688D
:100A500001268E40B543304E7560002B08D13546D7
:100A6000AD6801268E40B5432B4EB5600FE06DE0BA
:100A7000294DAD6801268E403543274EB56006E00E
:100A8000254D6D6801268E403543234E7560002C40
:100A900007D1214DED6801268E40B5431E4EF5600D
:100AA00006E01D4DED6801268E4035431A4EF56077
:100AB0004DE0002A18D1194D6D6801268E40B543CE
:100AC000164E7560002B07D13546AD6801268E4065
:100AD000B543124EB5600EE0104DAD6801268E4054
:100AE00035430E4EB56006E00C4D6D6801268E4014
:100AF00035430A4E7560002C20D1084DED68012663
:100B00008E40B543054EF5601FE000008080044034
:100B1000008000500080015000800250008003508F
:100B2000000001500000025000000350C03F005080
:100B3000C03F0150C03F0250C03F0350644DED68BC
:100B400001268E403543624EF56000E000BF00BFD5
:100B500070BD002806D001280CD0022812D003282E
:100B600020D117E05B4A126901238B401A43594B8D
:100B70001A6118E0584A126901238B401A43564BF8
:100B80001A6110E0554A126901238B401A43534BF6
:100B90001A6108E04E4A126901238B401A434C4BFC
:100BA0001A6100E000BF00BF7047002806D001288E
:100BB0000CD0022812D0032820D117E0454A126930
:100BC00001238B409A43434B1A6118E0424A126951
:100BD00001238B409A43404B1A6110E03F4A12694F
:100BE00001238B409A433D4B1A6108E0384A136950
:100BF00001228A409343364A136100E000BF00BFE0
:100C0000704710B502460020002A06D0012A0DD0F8
:100C1000022A14D0032A24D11AE02E4B9B69012406
:100C20008C402340002B00D001201BE02A4B9B6905
:100C300001248C402340002B00D0012012E0274BE0
:100C40009B6901248C402340002B00D0012009E047
:100C50001F4B9B6901248C402340002B00D00120B6
:100C600000E000BF00BF10BD002806D001280CD056
:100C7000022812D0032820D117E0164AD269012396
:100C80008B401A43134BDA6118E0134AD2690123EF
:100C90008B401A43104BDA6110E0104AD2690123ED
:100CA0008B401A430D4BDA6108E0094AD2690123EF
:100CB0008B401A43064BDA6100E000BF00BF70476B
:100CC000C206D20E01219140054A11607047000012
:100CD00000800350008000500080015000800250CE
:100CE00000E100E087488068C008C000854988604E
:100CF0000846806801210843824988608148403065
:100D00000069C008C0007F49403108610846006999
:100D1000012108437B49403108617A488030006AEC
:100D2000C008C0007749803108620846006A012186
:100D30000843744980310862002048637148806A22
:100D4000C008C0006F4988620846806A01210843D4
:100D50006C49886200206B49803188636948403063
:100D6000C069C008C00067494031C8610846C06911
:100D70000121084363494031C86100206149803145
:100D8000C8630846C068C008C000C8600846C0689C
:100D9000012108435B498031C860C0205A4908617D
:100DA0007047F8B50446152001218140574A11606B
:100DB00000BF54488030406AC008C00051498031AB
:100DC00048620846406A012108434E498031486222
:100DD0000846806AC008C00088620846806A01210F
:100DE0000843484980318862494800680121090365
:100DF0000843474908600120886183204249C86050
:100E00004348866942484038816B42480068FFF792
:100E1000C3F931460090FFF7BFF90709214638466C
:100E2000FFF7BAF90546280A37494860E8B2086072
:100E30000320C860072088600846466900BF324822
:100E40004069602108406028F9D101E02E48066819
:100E50002D484069C007C00F0028F7D1F8BD002811
:100E600000D170470BE000BF274A526920231A4087
:100E7000002AF9D00278244B1A60401C491E002930
:100E8000F1D100BFEDE7002800D170470AE000BFB4
:100E90001D494969202211400029F9D001781A4AD8
:100EA0001160401C01780029F1D100BFEDE730B599
:100EB00003460C4600202146002A10D00CE000BF5B
:100EC000114D6D69ED07ED0F002DF9D00E4D2D6818
:100ED0001D705B1C401C491E0029F0D110E00CE085
:100EE000094D6D69ED07ED0F002D00D107E0064DAE
:100EF0002D681D705B1C401C491E0029F0D100BFED
:100F000030BD0000004004400080004080E100E06F
:100F10008080044000000010F0B50C46871A9C4108
:100F20000D46861A9D4103D2C01BA141D2196341CF
:100F30000D0D1F0DC94EEC1BAE435CD07F057F0D20
:100F40000026002F51D02D05AC46A943DD02012318
:100F5000ED0A1B051D4320231B1B24D41746E74025
:100F6000381871412F46E740CC199D40281831466A
:100F700061410C0D27D161449A4013D50023401CD8
:100F8000594152000ED14008400001224B00520549
:100F9000D34207D305204007C14201D5B04900E044
:100FA000B0493046F0BD6B00002A00D001229A18EB
:100FB0001F23203C1B1B01D5002302E0E54028181D
:100FC00071410C0DD7D0012424050919C407CD07A0
:100FD00040084908E40F28436144002CD5D0002480
:100FE000401C61419A40D0D1CDE76A05520DD9D15C
:100FF000C90FC907D5E79C4D4E00002801D0012438
:1010000000E0002434195F00002A01D0012600E02E
:101010000026BE19954FAC420CD8AE420AD8B44255
:1010200006D001256D05EC42BCD010461946F0BD36
:101030009942FCD000203946F0BDF0B51FB40C46F3
:101040000F46811A9F412546861A9D4106D20125E9
:10105000ED076F40401ABC4152187B41210D1E0D17
:101060008D1BAC467D4D8D437ED075056D0D7CD0BE
:101070000D05AE46AC431B031B0B794D52429D41FF
:10108000202366469B1B14D31746F74038180026CA
:101090000090744160462F460741E41900989D4036
:1010A0002818664116D4714671189A4025D5012337
:1010B00020E093182A466A415200002B00D0521CAF
:1010C0001E23203E9B1B002B61DD3541EE172818A7
:1010D0006641E8D5001876415B1C9A4000D3401C5D
:1010E0004B05F3181524E34010D3002B52D0714662
:1010F0007118D30FC01802D3491C05B0F0BD0123ED
:10110000DB079A42F9D140084000F6E70122520578
:10111000B21801D1002853D00123CC0ADB02994335
:10112000891E002A08D1020C03D0020C00041039D9
:1011300002E00246002020390023550B05D112029F
:101140000823550B01D152010D23550C01D1120179
:101150001B1DD50C01D192009B1C150D01D1520015
:101160005B1C2025EE1A01E02CE022E00546F5404C
:1011700015439840CA1AE10769181305C918002ACF
:10118000BBDA032040070818C10FC9070FE07146FA
:101190006118B2E7F10740080843711071444A0032
:1011A0000CD001235B059A42A7D2C90FC9070020C2
:1011B000A3E74905490D26D1002001E00028F4D11C
:1011C00000219AE7284D6600002801D0012100E0A7
:1011D000002171185F00002A01D0012600E00026DE
:1011E000BE19224FA94210D8AE420ED8B14208D043
:1011F00001256D05E94206D01946A8024140104676
:101200007BE79C4201D0214677E70020394674E70E
:1012100010B50C465C4005D50124E4076340FFF798
:101220000CFF10BDFFF778FE10BD30B40C465C40DB
:1012300004D50124E407634030BC6DE630BCFCE615
:1012400070B50124E40761400D465D4002D4FFF70C
:1012500063FE70BD6340FFF7F0FE70BDFF07000046
:101260000000F0FF0000F07F0000E0FF0000F87FCA
:1012700030B50346CA02400D1043164D164C0A15F0
:1012800002D02043002A06DBAA1A002A12DDD04031
:10129000FF2A0BDC30BD5205520D01D14000400841
:1012A000AA1A07D4D0404042FF2A01DD002030BDF9
:1012B0000028FCDD4A00002B01D0012000E00020C6
:1012C000101801225205D042F0D8C817C043604020
:1012D00030BD00001E040000000000801F22030C2F
:1012E00002D10F22000402D0030E03D004E000203C
:1012F000014670470002083A030F01D10001121F96
:10130000830F01D18000921E002801DB4000521E95
:10131000120551184205C012411810467047C10FFE
:10132000C90700D04042012292071143D6E70121AC
:101330008907D3E7F0B58B4C0F09254689B0BD432B
:101340007BD01D092646AE43FAD00E465E402740AC
:10135000F60F3E43254071D024012142FBD0FF24EB
:10136000AD19A4042D1B039501252D05DB02DB0A15
:10137000C9022B43C90A29431E010901040F130F97
:10138000050121431701880B820391432D098C46E7
:10139000A90B1E438A039543B30B9A0396433F0957
:1013A000BA0B9403A74302962E467E430497B64693
:1013B0004E19D7190C460196544305977E43371BA7
:1013C0007646BF1B3601B646BE0B361900967646EA
:1013D000BC043719009C01D3641C00946400002FE6
:1013E00001D001263443029E049F754366467E4326
:1013F0000496760034196E0034190094029C019E04
:101400001C196643751BAE46069465464519059C36
:1014100005956C43594375460891691A0191049EDC
:1014200001465143A41B0491611A009C0791E106F7
:1014300005D061090122114302E072E06EE061090A
:10144000089D00272C0A2D066918049D7C412A0A54
:101450002D066918019D6241AC0DAD026D18544115
:10146000079A910D920255196141029A64465843B8
:101470005443069B059A5A43121A131B9A0E9B015A
:101480005B187A41010B0005C3185141220A20065E
:1014900044195A419A4200D2491C0120400281421B
:1014A00003D315230226F64302E014230326F64352
:1014B0002020C51AA9401746AF40DA400A4320460B
:1014C0000399D8400914731819055118039A384321
:1014D000D2075140AC4009D00122944006D30022EB
:1014E000401C5141002C01D1400840001E4A93424B
:1014F00012D3012203989206904207DB0520400791
:1015000009181A480143C012414004E00320400773
:101510000818C10FC907002009B0F0BD0020F1076D
:10152000FAE705180C464C4111486D42A04115D30D
:1015300094181A465A410E48644290410ED3012035
:101540004A004005824209D35A00824206D35940DC
:10155000C90F084AC90700201143DDE700200649EA
:10156000DAE700000000FF07FE070000FFFFFF7F33
:101570000000E0FF0000F07F0000F87FF8B5224C8B
:101580004E00069DA6420AD8A64201D1002806D1E7
:101590005E00A64203D8A6420AD1002A08D00D2434
:1015A000240425422CD02946002000F02FF8F8BD55
:1015B0000C461C430CD4994202D0EFF30080F8BDD6
:1015C000904202D0EFF30080F8BDEFF30080F8BD49
:1015D00009242407E5008B4206D0EFF30080A043E6
:1015E000591A06D2284304E0101A05D3EFF30080FD
:1015F000A04380F30088F8BDEFF30080A043F1E73B
:10160000009500F01BF8F8BD0000E0FFC80212D5FD
:101610004803400F002804D0C803C043012188407C
:101620007047EFF300800001000903210907084318
:1016300080F30088704700207047000010B500203C
:101640000249029A00F02BF810BD00000000F87F5C
:10165000754600F053F8AE46050069465346C0088B
:10166000C000854618B020B5FEF786FD60BC002797
:101670004908B6460026C0C5C0C5C0C5C0C5C0C55E
:10168000C0C5C0C5C0C5403D49008D46704710B5B6
:101690000446C046C0462046FEF75DFD10BD10B5AD
:1016A0000C461107090F092904D00A290AD0082974
:1016B0000CD104E011460820FFF7A8FF06E0510610
:1016C00006D501E0510601D50120C007214610BD15
:1016D000D10607D501010909CC084907000E00060B
:1016E000044309E0410F20024907000A0143200E8C
:1016F00000061D22D14101430846E7E70048704734
:101700000400001001491820ABBEFEE726000200CD
:1017100030B47446641E2578641CAB4204D3635D08
:101720005B00E31830BC18471D46F8E770B501258B
:101730000C002D051C4310D4EC4206D4AC420AD454
:10174000994200D070BD904270BDE94217D4EB427F
:1017500015D4994270BD894270BDEC4206D5AC42A9
:10176000F9D58B4200D070BD824270BD6D004C0037
:10177000EC4204D25C00EC4201D28B4270BD034CBF
:1017800030B4FFF7FBFE30BC70BD00BF190016047B
:101790009A999999995950407B14AE47E15A524011
:1017A0009A999999999954403333333333D35540A7
:1017B00000000000008058400000000000805B40F6
:1017C0001F85EB51B8DE5E40333333333353514022
:1017D00052B81E85EB7153403333333333D3554006
:1017E000000000000020574014AE47E17AF4594051
:1017F000C3F5285C8F225D400AD7A3703D5A604034
:101800002018000000000010040000000401000087
:1018100024180000040000106402000020010000F1
:04182000006CDC027A
:04000005000000C136
:00000001FF
